:020000040800F2
:10000000201E0420C1010008F90D0008EB020008C1
:100010009F08000809020008B9110008000000004C
:10002000000000000000000000000000A10F000818
:10003000E9020008000000009F0F000855100008AA
:10004000DB010008DB010008DB010008DB01000820
:10005000DB010008DB010008DB010008DB01000810
:10006000DB010008DB010008DB010008DB01000800
:10007000DB010008DB010008DB010008DB010008F0
:10008000DB010008DB010008DB010008DB010008E0
:10009000DB010008DB010008DB010008DB010008D0
:1000A000DB01000825110008DB010008DB01000866
:1000B000DB010008DB010008DB010008DB010008B0
:1000C000DB010008DB010008DB010008DB010008A0
:1000D000DB010008DB010008DB010008DB01000890
:1000E000DB010008DB010008DB010008DB01000880
:1000F000DB010008DB010008DB010008DB01000870
:10010000DB010008DB010008DB010008DB0100085F
:10011000DB010008DB010008DB010008DB0100084F
:10012000390200088D020008DB010008DB0100082D
:10013000DB010008DB010008DB010008DB0100082F
:10014000DB010008DB010008DB010008DB0100081F
:10015000DB010008DB010008DB010008DB0100080F
:10016000DB010008DB010008DB010008DB010008FF
:10017000DB010008DB0100080D02000800000000A0
:10018000DB010008DB010008DB010008DB010008DF
:10019000DB010008DB010008DB01000800000000B3
:1001A000DB010008DB010008DB010008DFF80CD0F0
:1001B00000F018F800480047551C0008201E0420D5
:1001C0000648804706480047FEE7FEE7FEE7FEE7F1
:1001D000FEE7FEE7FEE7FEE7FEE7FEE75D1000084C
:1001E000AD010008064C074D06E0E06840F0010351
:1001F00094E8070098471034AC42F6D3FFF7DAFFD3
:10020000985E0008B85E000800BFFEE710B5012048
:1002100001F02CF8012809D101F020F804480078F9
:10022000401C0349087001200249088010BD0000ED
:100230001B0000201800002010B5202200211048CB
:1002400001F03EF9012819D100210D4801F03BFBD6
:100250000C49086000210A4801F030F820220021F2
:10026000074801F0B0F8084800210268044801F08E
:1002700022FB20220021024801F003F910BD0000FA
:1002800000640240140000201000002010B520225D
:100290000121114801F014F901281CD101210E4857
:1002A00001F011FB0D49086001210B4801F006F82F
:1002B00020220121084801F086F80948012102683E
:1002C000054801F0F8FA01200649087020220121B2
:1002D000014801F0D6F810BD00640240140000206F
:1002E000100000200C000020704700BFFEE770B532
:1002F00004460D4616462B4622462946204600F067
:1003000065FA304600F0C2FA70BD2DE9F0470646A6
:100310000F4614461D46DDF820A06B1E621E3946AE
:10032000304600F053FAB8460EE0B14606E05046BB
:1003300000F0ACFA09F101001FFA80F9A145F6DBE3
:1003400008F101001FFA80F8A845EEDBBDE8F08750
:100350002DE9FF5F8046894615461F460E9E002404
:100360000020039002900190009009EB0700431ECB
:1003700008EB0500421E4946404600F027FAA24617
:100380002AE04FF0000B21E056F82400000E039005
:1003900056F82400C0F30740029036F82400C0F35A
:1003A0000720019016F824000090019800F026F92B
:1003B000009800F023F9039800F020F9029800F06B
:1003C0001DF9641C0BF101001FFA80FBBB45DBDB50
:1003D0000AF101001FFA80FA05EBD571BAEB610F43
:1003E000CFDBBDE8FF9F00002DE9FF5F80468A4616
:1003F00017469B460F9D00200290CDF800802846AE
:1004000005EBD071C1F347042046E21704EB5272AA
:10041000D2102146E31704EB5373DB10A4EBC303A4
:100420000BB1012300E000231A446A4392B2019207
:10043000A7F12000C7B20AEB0500431E08EB040039
:10044000421E5146404600F0C1F9002669E00C2DDD
:1004500007D107EB4700354901EB8000805D039031
:100460001BE0102D05D1324800EB0710805D039092
:1004700013E0182D07D107EB47002E4901EB0010C0
:10048000805D039009E0202D05D12B4800EB8710FB
:10049000805D039001E0BDE8FF9F4FF000093AE066
:1004A0001098C8B9012000FA09F00399084018B162
:1004B000584600F0EBF902E00E9800F0E7F90298D8
:1004C000401CC0B20290029890FBF4F104FB1100B2
:1004D000E8B90020029021E0012000FA09F0039918
:1004E000084020B15A4651464046FFF700FF08F148
:1004F00001001FFA80F80098A8EB0000A04206D186
:10050000DDF800800AF101001FFA80FA06E009F127
:10051000010000F0FF09B9F1080FC1DB00BF701C3A
:1005200086B20198864292DB00BFB4E75E220008E3
:10053000D2260008C22C0008923E00082DE9FF4F89
:1005400085B0074691461D46DDE913A600200490BC
:10055000304606EBD071C1F3470B002434E0281B72
:10056000401EC1B20A2001F0BFFBB9FBF0F00A2126
:10057000B0FBF1F201FB12080498A0B9681EA0427A
:1005800011DDB8F1000F0CD1002004FB0B71CDE997
:1005900000A6029088B22022129B0699FFF724FF42
:1005A00010E001200490002008F13001CAB204FBE1
:1005B0000B71CDE900A6029088B2129B0699FFF755
:1005C00013FF00BF601CC4B2AC42C8DB09B0BDE879
:1005D000F08F000010B504460121074801F0AAF988
:1005E000204600F01FFD042000F04CFE01210248CF
:1005F00001F0A2F910BD00000000024010B5044651
:1006000001210A4801F096F90948C46000BF084872
:10061000806800F002000028F9D0012000F032FECE
:100620000121024801F088F910BD000000000240DD
:100630000050014010B500F0B5FC01F0C5FA0221F0
:10064000614801F077F9642000F022FE02215E4843
:1006500001F072F9642000F01BFE04215A4801F0F9
:100660006BF9112000F0FCF8782000F011FE00205A
:1006700000F0E8F83A2000F0F3F8052000F000F967
:10068000B22000F0EDF80C2000F0FAF80C2000F099
:10069000F7F8002000F0F4F8332000F0F1F83320F0
:1006A00000F0EEF8B72000F0DBF8352000F0E8F8B5
:1006B000BB2000F0D5F8322000F0E2F8C22000F0B4
:1006C000CFF8012000F0DCF8C32000F0C9F81520B5
:1006D00000F0D6F8C42000F0C3F8202000F0D0F8D5
:1006E000C62000F0BDF80F2000F0CAF8D02000F0BE
:1006F000B7F8A42000F0C4F8A12000F0C1F8E02071
:1007000000F0AEF8D02000F0BBF8082000F0B8F8F8
:100710000E2000F0B5F8092000F0B2F8092000F032
:10072000AFF8052000F0ACF8312000F0A9F8332034
:1007300000F0A6F8482000F0A3F8172000F0A0F879
:10074000142000F09DF8152000F09AF8312000F0F8
:1007500097F8342000F094F8E12000F081F8D020E0
:1007600000F08EF8082000F08BF80E2000F088F8DA
:10077000092000F085F8092000F082F8152000F02B
:100780007FF8312000F07CF8332000F079F8482021
:1007900000F076F8172000F073F8142000F070F8DD
:1007A000152000F06DF8312000F06AF8342000F0D8
:1007B00067F8212000F054F8292000F051F8782043
:1007C00000F066FD10BD0000000002402DE9F04180
:1007D00007460C4615461E461948007818B11848B9
:1007E0000078C02806D104F1140084B206F1140088
:1007F00086B20DE012480078702803D010480078C7
:10080000A02805D107F1140087B205F1140085B2C4
:100810002A2000F025F8384600F038F8284600F085
:1008200035F82B2000F01CF8204600F02FF8304659
:1008300000F02CF82C2000F013F8BDE8F081000047
:100840000800002010B5044604480470362000F06B
:1008500007F80248007800F013F810BD08000020E7
:1008600010B504460821054801F064F82046FFF75A
:10087000B1FE0821014801F05FF810BD00080240F8
:1008800010B504462046FFF7A5FE10BD10B504467E
:100890002012FFF79FFEE0B2FFF79CFE10BD00BFE5
:1008A000FEE7000030B58DB004460D4631480560C6
:1008B00040F6164001F066FB01212F4800F031FDA3
:1008C00001212D4800F0FAFC102201212A4800F0F5
:1008D000B9FD20220121284800F0D3FD202201216A
:1008E000254800F070FD01221146234800F06BFD01
:1008F00004220121204800F066FD082201211E4843
:1009000000F061FD102201211B4800F05CFD1B4836
:1009100000904FF4805001900120029003948003D6
:100920000490002005900690079003200890002076
:1009300009900A900B954FF440300C900022012151
:100940000D4800F097FF0023224601210A4800F0DD
:100950006BFF00220121084800F054FD01221146DE
:10096000054800F0CBFC6A460121034800F0AAFECE
:100970000DB030BD1000002000640240280005507A
:1009800010B50121014800F0A9FC10BD006402402F
:1009900010B540F6014001F0F5FA40F6014001F0D3
:1009A000F1FA41F2150001F0EDFA402204211D4850
:1009B00000F091FF4FF4007204211A4800F08BFF01
:1009C000402300220221174800F0BDFF4FF40073BE
:1009D00000220221134800F0B6FF40230322002129
:1009E000104800F0D7FF4FF40073032200210D4898
:1009F00000F0D0FF0C4801F071F800220B490A48C2
:100A000000F0F2FF602300221146074801F0C4F80D
:100A1000054801F08FF84FF48061034800F0DBFFD8
:100A200010BD00000004024000540040A0860100F8
:100A300070B504460D463A4801F0BCF800BF4FF4CB
:100A4000A061374801F08FF80028F8D06FF001025C
:100A50002146334801F096F800BF40F2015130487A
:100A600001F081F80028F8D040F201512C4801F043
:100A700066F829462A4801F02DF800BF40F20751D8
:100A8000274801F070F80028F8D040F207512448B8
:100A900001F055F8224801F08DF800BF4FF4A06135
:100AA0001F4801F060F80028F8D0012221461C48B8
:100AB00001F068F800BF40F20151194801F053F805
:100AC0000028F8D040F20151154801F038F800BF75
:100AD00040F20251124801F046F80028F8D00021F7
:100AE0000F4800F078FF00BF40F206510C4801F0BB
:100AF0003AF80028F8D00A4800F0E8FF064608480F
:100B000001F05DF800BF0648006800F4007000289E
:100B1000F9D14FF48061024800F05DFF304670BDAE
:100B20000054004070B504460E461546294801F0B1
:100B300041F800BF4FF4A061264801F014F80028E6
:100B4000F8D06FF001022146224801F01BF800BFE7
:100B500040F201511F4801F006F80028F8D040F299
:100B600001511C4800F0EBFF00BF40F2075119484B
:100B700000F0F9FF0028F8D03146164800F0AAFF2F
:100B800000BF40F20751134800F0EDFF0028F8D0F5
:100B900040F207510F4800F0D2FF29460D4800F0FF
:100BA00099FF00BF40F207510A4800F0DCFF00281F
:100BB000F8D040F20751074800F0C1FF054800F0A7
:100BC000FEFF00BF0348006800F400700028F9D160
:100BD00070BD00000054004000B587B04FF4506075
:100BE00001F0D0F94FF4406001F0CCF940F601403B
:100BF00001F0C8F940F6024001F0C4F940F60340A4
:100C000001F0C0F940F6044001F0BCF940F606409E
:100C100001F0B8F94FF400720D21714800F05BFE4D
:100C20004FF480620D216E4800F055FE4FF4807243
:100C30000D216C4800F04FFE4FF480720D216A4880
:100C400000F049FE4FF400620D21674800F043FEBA
:100C500008220D21654800F03EFE40220D21644827
:100C600000F039FE4FF400620D21624800F033FEBF
:100C700080220D215B4800F02EFE10220D215848E5
:100C800000F029FE40220D21554800F024FE4FF4CB
:100C9000007300220221524800F055FE4FF4806399
:100CA000002202214E4800F04EFE4FF480730022D5
:100CB00002214C4800F047FE4FF4807300220221CD
:100CC000494800F040FE4FF40063002202214648EC
:100CD00000F039FE082300220221444800F033FED0
:100CE000402300220221424800F02DFE4FF4006311
:100CF000002202213F4800F026FE8023002202212C
:100D0000384800F020FE102300220221344800F071
:100D10001AFE402300220221314800F014FE4FF455
:100D20000073032200212E4800F034FE4FF480634C
:100D3000032200212A4800F02DFE4FF48073032285
:100D40000021284800F026FE4FF480730322002182
:100D5000254800F01FFE4FF40063032200212248C3
:100D600000F018FE082303220021204800F012FEA4
:100D70004023032200211E4800F00CFE4FF40063C4
:100D8000032200211B4800F005FE802303220021DE
:100D9000144800F0FFFD102303220021104800F04A
:100DA000F9FD4023032200210D4800F0F3FD00F07F
:100DB0001FFA002001902020029000200390049050
:100DC00005900690012211464E2000F099FF012067
:100DD00000F03CFA01A800F01FFA07B000BD0000C7
:100DE000000002400004024000080240000C0240E3
:100DF00000100240001802407047000010B50028A3
:100E000007DA0A07140E054A00F00F031B1FD4541B
:100E100003E00A07130E024A135410BD18ED00E058
:100E200000E400E010B5FFF7D7FE4FF4006001F0DA
:100E3000A9F8002001F0A6F84FF400730022012168
:100E40000C4800F080FD4FF4007303220021094894
:100E500000F0A0FD4FF4807300220121064800F04D
:100E600072FD4FF4807303220021034800F092FDCD
:100E700010BD0000000802400000024070B50025CF
:100E80000024FFF7CFFF002000F074F8012000F0ED
:100E900071F8012000F0FCF9FFF77AFD002000F066
:100EA00053F81C2000F05CF805461D2000F058F8AF
:100EB00040EA05250121FF2000F068F80A2000F033
:100EC000E7F900BF0AE01D4A02EB440251781B4AD1
:100ED00012F8140000F05AF8601CC4B2B12CF2D31E
:100EE000642000F0D5F900240AE0154A02EB440220
:100EF0005178134A12F8140000F048F8601CC4B28C
:100F00000E2CF2D3642000F0C3F900240AE00D4A4D
:100F100002EB440251780B4A12F8140000F036F844
:100F2000601CC4B2082CF2D3642000F0B1F94FF475
:100F30008C71F02000F050FF284670BDA45B0008C3
:100F40006A5E0008865E000810B5044622464FF42B
:100F50000071024800F0F2FC10BD000000080240E1
:100F600070B5044621466020FFF762FD054628461D
:100F700070BD000010B5044622464FF4807102484F
:100F800000F0DCFC10BD00000000024070B504461B
:100F90000D462A4621466020FFF7C4FD70BD70470C
:100FA0007047000000B587B040F6054000F0EAFF4A
:100FB00041F2141000F0E6FF4FF46072052117486B
:100FC00000F089FC4FF4607300220221134800F006
:100FD000BAFC4FF4607302220021104800F0DAFCE2
:100FE0004FF460710D4800F0A7FC002001904FF411
:100FF0008270009000200290032005904FF4007052
:1010000003900020069004906946054800F0FFFF19
:10101000034800F0EDFF07B000BD000000140240DF
:101020000050014010B5044600BF0221084800F0FE
:10103000E6FF0028F9D02146054800F0DEFF00BF9A
:101040000221034800F0DBFF0028F9D010BD0000AA
:101050000050014010B500F025F910BD08B52D482D
:10106000006840F470002B4908602B48006840F08D
:1010700001002949086028480830006840F08000D5
:101080002549083108600020009002E00098401CCB
:1010900000904CF2503100988842F7D31E48083037
:1010A000006840F090001C49083108600020009062
:1010B00002E00098401C00904CF2503100988842A9
:1010C000F7D315480830006820F0030012490831B2
:1010D000086011480068114908400F490860084637
:1010E000006820F48020086000200B490831086067
:1010F00000BF09480830006800200028F9D10848DE
:101100000549091D0860002003490C31086001F001
:1011100015F808BD88ED00E000380240FFFFF6FE3C
:101120001030002410B501210A4801F08CF878B184
:1011300009480078401C08490870084800780849A8
:1011400008700020054908700121024801F078F874
:1011500010BD0000004401401C0000201B000020C6
:101160001A0000201FB541F2111000F00BFF44F6E9
:101170002060ADF800004020ADF802000020ADF87E
:10118000040042F2107002900020ADF806008DF8C5
:101190000C006946074801F003F8032202211920D8
:1011A00000F0AEFD0121034801F046F8014800F0CF
:1011B000F1FF1FBD0044014000BFFEE702E008C888
:1011C000121F08C1002AFAD170477047002001E0C1
:1011D00001C1121F002AFBD17047000003480068BC
:1011E00040F0010001490860704700000000055010
:1011F00010B54FF4A06000F0E9FE4FF4A06000F0DD
:10120000D3FE10BD0348006840F4804001490860E7
:10121000704700000000055000210B4A126844F29C
:1012200001039A43084B1A60026811434268114354
:1012300082681143C2681143026911434269114334
:101240001A46116070470000000005500249C96845
:101250000143014AD16070470000055002494969C5
:101260000143014A5161704700000550014604489E
:101270000069084008B9002070470120FCE7000021
:101280000000055000BF011EA0F10100FBD1704716
:101290000349086000BF024909680029FBD1704773
:1012A000000000200448006820B103480068401E88
:1012B00001490860704700000000002010B501EBF4
:1012C0004102D30000F11002D25822F0010301EBD9
:1012D0004102D40000F11002135110BD10B501EB12
:1012E0004102D30000F11002D25842F0010301EB99
:1012F0004102D40000F11002135110BD30B5134665
:1013000001EB4104E50000F11004625922F0606233
:1013100042EA436201EB4104E50000F1100462512E
:1013200030BD10B501EB4102D30000F11002D258DC
:1013300022F0010301EB4102D40000F1100213512D
:10134000002301EB4102D40000F11002135101EB24
:101350004102D40000F11402135101EB4102D40008
:1013600000F11802135101EB4102D40000F11C02FC
:10137000135101EB4102D40000F12002135101EBA3
:101380004102D40000F12402135104290CDA01EBCC
:1013900041025300C1F3400203EB82033D229A4015
:1013A00083681A4382600DE00A1FD1B201EB41024B
:1013B0005300C1F3400203EB82033D229A40C3680D
:1013C0001A43C26010BD10B504290CDA01EB4103C9
:1013D0005C00C1F3400304EB830302FA03F3846867
:1013E000234383600DE00B1FD9B201EB41035C0086
:1013F000C1F3400304EB830302FA03F3C4682343FD
:10140000C36010BD30B572B901EB4103DC0000F1DF
:1014100010031B5923F0200401EB4103DD0000F110
:1014200010035C510DE001EB4103DC0000F11003FF
:101430001B5943F0200401EB4103DD0000F11003D0
:101440005C5130BD30B5802A0DD001EB4103DC008A
:1014500000F110031B59934301EB4104E50000F137
:10146000100463510CE001EB4103DC0000F12403A4
:101470001B59934301EB4104E50000F1240463513F
:1014800030BD10B504290CDA01EB41035C00C1F357
:10149000400304EB830302FA03F38468234383606D
:1014A0000DE00B1FD9B201EB41035C00C1F3400317
:1014B00004EB830302FA03F3C4682343C36010BD43
:1014C000F0B50346002500260C46042979DA082ADF
:1014D00034D004DC012A07D0042A70D119E0102A84
:1014E00041D0202A6BD153E001EB41004700C1F30A
:1014F000400007EB800702FA07F01F6800EA0706C2
:1015000001EB4100C70003F12400C05900F0800541
:1015100056E001EB41004700C1F3400007EB8007B4
:1015200002FA07F01F6800EA070601EB4100C70056
:1015300003F11000C05900F0020541E001EB410049
:101540004700C1F3400007EB800702FA07F01F686D
:1015500000EA070601EB4100C70003F11000C05983
:1015600000F004052CE001EB41004700C1F340000E
:1015700007EB800702FA07F01F6800EA070601EB95
:101580004100C70003F11000C05900F0080517E042
:1015900001EB41004700C1F3400007EB800702FA6E
:1015A00007F01F6800EA070601EB4100C70003F1DE
:1015B0001000C05900F0100502E002E0FFE700BF94
:1015C0007AE0201FC4B2082A34D004DC012A07D0F4
:1015D000042A6FD119E0102A41D0202A6AD153E0A1
:1015E00004EB44004700C4F3400007EB800702FA15
:1015F00007F05F6800EA070601EB4100C70003F14E
:101600002400C05900F0800555E004EB4400470079
:10161000C4F3400007EB800702FA07F05F6800EAB6
:10162000070601EB4100C70003F11000C05900F0AC
:10163000020540E004EB44004700C4F3400007EB20
:10164000800702FA07F05F6800EA070601EB410035
:10165000C70003F11000C05900F004052BE004EBB3
:1016600044004700C4F3400007EB800702FA07F08C
:101670005F6800EA070601EB4100C70003F11000B4
:10168000C05900F0080516E004EB44004700C4F31D
:10169000400007EB800702FA07F05F6800EA0706E0
:1016A00001EB4100C70003F11000C05900F0100524
:1016B00001E0FFE700BF00BF16B10DB10120F0BD92
:1016C0000020FCE770B501EB4104E50000F12404C3
:1016D0006459156A45F004052C4301EB4105EE0001
:1016E00000F12405AC5101EB4104E60000F11804BF
:1016F0001568A55101EB4104E60000F11C04D56812
:10170000A55101EB4104E60000F11404D56AA5518E
:1017100001EB4104E50000F110046359414C234002
:10172000156954682C43156B2C43956A2C439569B5
:101730002C43D5692C43234301EB4104E50000F120
:1017400010046351946874B901EB4104E50000F1A1
:101750001004645944F4007501EB4104E60000F103
:101760001004A5511FE09468012C0ED101EB410437
:10177000E50000F11004645924F4007501EB410404
:10178000E60000F11004A5510DE001EB4104E50075
:1017900000F11004645944F4004501EB4104E600F3
:1017A00000F11004A551546974B901EB4104E5003E
:1017B00000F11004645944F4806501EB4104E60033
:1017C00000F11004A5510DE001EB4104E50000F12A
:1017D0001004645924F4806501EB4104E60000F133
:1017E0001004A551546A74B901EB4104E50000F1FD
:1017F0001004645944F4807501EB4104E60000F1E3
:101800001004A5510DE001EB4104E50000F11004C6
:10181000645924F4807501EB4104E60000F11004E2
:10182000A55170BD3F871CFE70B501EB4104E5007A
:1018300000F12004625173B901EB4104E50000F1AD
:101840001004645924F4002501EB4104E60000F182
:101850001004A5510DE001EB4104E50000F1100476
:10186000645944F4002501EB4104E60000F1100442
:10187000A55170BD30B5012A0ED101EB4103DC004A
:1018800000F110031B5943F4802401EB4103DD00F8
:1018900000F110035C510DE001EB4103DC0000F1AD
:1018A00010031B5923F4802401EB4103DD0000F1F8
:1018B00010035C5130BD10B501EB4103DC0000F1B9
:1018C00014031A5110BD024601EB4100C30002F19E
:1018D0001400C0587047F0B503461C6A5D6A0020CA
:1018E0000DE00126864016403EB187000F26BE401F
:1018F000B443860001FA06F63443461CB0B2082809
:10190000EFD3082011E00126864016405EB1A0F119
:101910000806B7000F26BE40B543A0F10806B60082
:1019200001FA06F63543461CB0B21028EBD31C6210
:101930005D62F0BD81627047816170470AB181616B
:1019400000E081627047F0B504460D4616462168F6
:10195000E268002019E0012787401F409FB14FEA4D
:10196000400C032707FA0CF7B943470005FA07F7BD
:1019700039434FEA400C032707FA0CF7BA434700F4
:1019800006FA07F73A43471CB8B21028E3D32160A0
:10199000E260F0BDF0B50C461546012C03D1466857
:1019A0001E43466002E046689E434660826800210E
:1019B0000DE001268E401E403EB14F000326BE4082
:1019C000B2434E0005FA06F632434E1CB1B210295E
:1019D000EFD38260F0BD0A460021016821F48061E6
:1019E00011430160704700002DE9F05F04460E4688
:1019F0009346022000F034FA07463148B7FBF0F96D
:101A0000B9F13C0F01D34FF03C09D4F804A02AF0FF
:101A10003F0A4AEA090AC4F804A02A4886421ED8A6
:101A20002748B7FBF0F000F10108B8F13C0F02D3F2
:101A30003C20206207E0B8F1020F02D802202062A9
:101A400001E0C4F820807000B7FBF0F5042D00D24F
:101A50000425E069C5F30B010843E0612EE01A4854
:101A600086422BD84FF4967009FB00F04FF47A7140
:101A7000B0FBF1F0401C2062BBF1000F08D106EB77
:101A80004600B7FBF0F5E06920F48040E06109E032
:101A900006EBC60000EB0610B7FBF0F5E06940F47A
:101AA0008040E061C5F30B0008B945F00105E0692D
:101AB00040F40040E061E0692843E061BDE8F09F48
:101AC00040420F00A0860100801A06000146086906
:101AD000C0B27047CAB202617047000010B5044638
:101AE0001348204430B1B0F5806F0CD0B0F5006FD2
:101AF0001BD111E040F6150000F068FA40F6150021
:101B000000F052FA12E040F6160000F05FFA40F6DC
:101B1000160000F049FA09E040F6170000F056FA06
:101B200040F6170000F040FA00E000BF00BF10BD13
:101B300000ACFFBF016841F001010160704710B5C2
:101B400040F20152914202D1426982690AE000EBFF
:101B50009112126801F01F040123A3409A4300EB85
:101B600091131A6010BD10B5024602EB9110006887
:101B700001F01F040123A340184008B1012010BD4B
:101B80000020FCE712F1020F02D121F0010101E077
:101B900041F001010161704730B50C460021016838
:101BA00021F0020121430160C3F3090342EA030566
:101BB000856030BD016841F4807101607047016843
:101BC00041F400710160704710B54FF4406000F0BF
:101BD000D9F90223002201211C48FFF7B4FE022399
:101BE0001A4600211948FFF7D5FE40F6024000F0E2
:101BF000C9F90823002201211548FFF7A4FE082394
:101C0000022200211248FFF7C5FE4FF4406000F0A9
:101C1000B9F90123002219460C48FFF794FE01236D
:101C2000022200210948FFF7B5FE4FF4406000F0A2
:101C3000A9F90423002201210448FFF784FE0423AC
:101C4000022200210148FFF7A5FE10BD000002405E
:101C5000000802400EB500F075FAFEF7EBFCFFF746
:101C60000DF9FEF7B9FF40F2CF104FF48C73F0225C
:101C7000002100900846FEF748FB48F24031174823
:101C8000FEF710FEFEF77CFEFFF7BCFAFFF7A6FAA0
:101C9000FFF768FA21E01248008801281BD10F489D
:101CA0004FF48C73F022002100900846FEF750FBA1
:101CB00020204BF640414FF6FF72CDE90021029003
:101CC00008480278022340210120FEF737FC00205B
:101CD0000349088000E000BF00BFDCE720000020CF
:101CE000180000201A00002010B50246012000E074
:101CF00050430B1EA1F10104E1B2F9D110BD000067
:101D00002DE9F04103460D46164600240027A04663
:101D10002A48006800F4E060B0F5E06F03D100BF2E
:101D20004FF0040830E02548006800F4E060B0F5AA
:101D3000C06F03D101274FF0030825E01F4800685A
:101D400000F4E060B0F5A06F02D10227B8461BE0B6
:101D50001A48006800F4E060B0F5806F03D10327F3
:101D60004FF0010810E01548006800F4E060B0F59D
:101D7000407F03D104274FF0000805E04FF4A06036
:101D800000F020F80227B846C7F1040005FA00F475
:101D9000C8F104010F20C840304004432401084822
:101DA000C45403F01F01012088405911890001F13A
:101DB000E021C1F80001BDE8F08100000CED00E079
:101DC00000E400E002490143024A1160704700004C
:101DD0000000FA050CED00E02DE9F04104460D4647
:101DE000E11704EB91718910A4EB810111B1FF207F
:101DF000BDE8F081E91705EB91718910A5EB810130
:101E000009B1FF20F4E72046E11704EB9171C1F31B
:101E10008F072846E91705EB9171C1F38F06002162
:101E2000FF20FFF7B3F80421E020FFF7AFF8F9B285
:101E30005A20FFF7ABF8F1B25B20FFF7A7F8C7F322
:101E40000128042000EAA61040EA080841465C2068
:101E5000FFF79CF80021E020FFF798F80020C7E783
:101E60002DE9F04F8CB0064600200A903EA090E885
:101E7000004CC068CDE905BECDF810A007900FF268
:101E8000EC0ADAE9000ACDE9020A0FF2E00ADAE91F
:101E9000000ACDE9000A38480068C0F381000B90C1
:101EA0000B9820B1012804D0022828D103E033493F
:101EB00027E0334925E03048001F006800F03F0765
:101EC0002D48001F0068C0F3881C2B48001F0068C5
:101ED000C0F30140401C4FEA40092748001F00683A
:101EE00000F48008B8F5800F01D1254B00E0234BAA
:101EF000B3FBF7F000FB0CF0B0FBF9F101E01F4978
:101F000000BF00BF1C480068C0F3031404A8055DAF
:101F100021FA05F218480068C0F3822402A8055D82
:101F200022FA05F0099014480068C0F342341DF805
:101F3000045022FA05F0089036B1012E06D0022E88
:101F400006D0032E0AD106E00A9108E00A9206E0C4
:101F500009980A9003E008980A9000E000BF00BFCB
:101F60000A980CB0BDE8F08F0000000000000000EF
:101F70000102030406070809083802400024F4009F
:101F800040787D01074A02EB9011D1F8001800F06B
:101F90001F0301229A401143024B03EB9012C2F837
:101FA0000018704700300240074A02EB9011D1F848
:101FB000001800F01F0301229A409143024B03EBEB
:101FC0009012C2F80018704700300240074A02EB36
:101FD0009011D1F8001800F01F0301229A4011431C
:101FE000024B03EB9012C2F8001870470030024019
:101FF000016841F0400101607047C16070470246CE
:102000009068084008B1012070470020FCE70246B4
:102010000020106800F441500B6818434B681843C7
:102020008B681843CB6818430B6918434B691843F6
:102030008B6918431060D36923F40063D361704740
:10204000002000213A4A126842F48032384B1A606C
:1020500000BF401C364A126802F4003119B94FF62D
:10206000FF729042F5D1324A126802F400320AB986
:1020700000BFFEE72E4A4032126842F080522C4BDD
:1020800040331A602B4A126842F44042294B1A60CE
:10209000274A08321268264B08331A601A4612681B
:1020A00042F400421A601A46126842F4A0521A60C2
:1020B000214A1B1F1A601A1F126842F080721B1FF0
:1020C0001A6000BF1A4A126802F00072002AF9D0A2
:1020D000184A126842F48032164B1A6000BF154A43
:1020E000526802F48032002AF9D0124A126842F48F
:1020F0000032104B1A6000BF0E4A526802F40032E0
:10210000002AF9D00A4A0832126822F00302084B6A
:1021100008331A601A46126842F002021A6000BFC1
:10212000034A0832126802F00802002AF8D0704709
:1021300000380240007000401964400910B5FFF7F4
:102140007FFF10BD10B5124800684FF47A71B0FBE4
:10215000F1F4601EB0F1807F01D301200FE0601E1A
:102160004FF0E02148610F214FF0FF30FEF746FEAF
:1021700000204FF0E021886107200861002008B1AD
:1021800000BFFEE70021481EFEF738FE10BD00002C
:1021900004000020016841F0010101607047000067
:1021A0000A8882621D4A90420ED0B0F1804F0BD057
:1021B0001B4A904208D01B4A904205D01A4A9042CE
:1021C00002D01A4A90420BD1026822F070020260DB
:1021D00002684B881A43026002688B881A430260C7
:1021E0008A68C262124A90420AD0124A904207D0CC
:1021F000026822F4407202600268CB881A430260CF
:10220000064A904202D0094A904201D10A7B0263F9
:10221000426942F001024261704700000000014043
:102220000004004000080040000C00400004014091
:102230000010004000140040C2680A43C2607047AA
:10224000CA43026170470246D06800EA0103106980
:10225000084010B10BB1012070470020FCE70000DE
:10226000000000000000000000000000040404045E
:1022700004000004000014140A0000000000000024
:10228000000000000A0A1F0A0A1F0A0A00000004D0
:102290000E1505060C14150E0400000012150D1580
:1022A0002E2C2A1200000000040A0A3615152916E1
:1022B0000000020201000000000000000000100801
:1022C00008040404040408081000020404080808B0
:1022D00008080404020000000004150E0E15040096
:1022E000000000000008083E080800000000000090
:1022F0000000000000000202010000000000003F9A
:1023000000000000000000000000000000000002CB
:102310000000002010100808040402020100000060
:102320000E1111111111110E000000000406040419
:102330000404040E000000000E1111080402011F25
:10234000000000000E11100C1010110E0000000013
:10235000080C0C0A091F081C000000001F01010FD7
:102360001110110E000000000C12010D1311110EBE
:10237000000000001E10080804040404000000000F
:102380000E11110E1111110E000000000E11111985
:102390001610090600000000000004000000000400
:1023A0000000000000000004000000040400000021
:1023B00010080402020408100000000000003F00A2
:1023C0003F00000000000000020408101008040292
:1023D000000000000E1111080404000400000000B9
:1023E0001C22292D2D1D221C0000000004040C0AB3
:1023F0000A1E1233000000000F12120E1212120FEA
:10240000000000001E1101010101110E000000007A
:102410000F1212121212120F000000001F120A0EE9
:102420000A02121F000000001F120A0E0A02020711
:10243000000000001C1201013911120C0000000004
:102440003312121E12121233000000001F04040483
:102450000404041F000000003E08080808080808DB
:102460000907000037120A060A121237000000009E
:10247000070202020202223F000000003B1B1B1B5E
:1024800015151535000000003B1216161A1A121702
:10249000000000000E1111111111110E00000000BA
:1024A0000F12120E02020207000000000E1111119D
:1024B0001117190E180000000F12120E0A1212370F
:1024C000000000001E1101060810110F000000009E
:1024D0001F1504040404040E00000000331212123D
:1024E0001212120C000000003312120A0A0C04042B
:1024F00000000000151515150E0A0A0A000000005C
:102500001B0A0A04040A0A1B000000001B0A0A0A2C
:102510000404040E000000001F0908040402121F36
:1025200000001C0404040404040404041C0000024D
:10253000020404040808081010000E08080808081F
:10254000080808080E00040A00000000000000004F
:10255000000000000000000000000000003F020436
:102560000000000000000000000000000000000C5F
:10257000121C123C000000030202020E1212120E84
:10258000000000000000001C1202120C00000018E5
:102590001010101C1212123C000000000000000C71
:1025A000121E021C000000182404041E0404041E51
:1025B000000000000000003C120C021C221C000362
:1025C0000202020E1212123700000004040000067C
:1025D0000404040E000000080800000C08080808A5
:1025E000080700030202021A0A060A130000000785
:1025F000040404040404041F000000000000000F91
:1026000015151515000000000000000F12121237FA
:10261000000000000000000C1212120C000000006C
:102620000000000F1212120E020700000000001C32
:102630001212121C103800000000001B06020207D4
:10264000000000000000001E020C101E0000000030
:102650000004041E0404041C000000000000001B11
:102660001212123C000000000000001B0A0A0404C1
:102670000000000000000015150E0A0A000000000E
:102680000000001B0A040A1B0000000000000033C9
:1026900012120C08040300000000001E0804041EAF
:1026A000000018080808080C08080808180008089E
:1026B00008080808080808080808060404040408AC
:1026C00004040404060016090000000000000000D5
:1026D00000000000000000000000000000000000FA
:1026E0000000000000080808080808080000181882
:1026F000000000486C2412000000000000000000F0
:1027000000000000002424247F1212127F121212F3
:1027100000000000081C2A2A0A0C1828282A2A1C53
:10272000080800000022251515152A585454542273
:1027300000000000000C1212120A76252911916E79
:102740000000000606040300000000000000000076
:102750000000004020101008080808080810102089
:10276000400000020408081010101010100808049F
:1027700002000000000008086B1C1C6B0808000029
:10278000000000000000080808087F08080808008A
:10279000000000000000000000000000000006062D
:1027A00004030000000000000000FE000000000024
:1027B000000000000000000000000000000006060D
:1027C000000000008040402020101008080404028F
:1027D00002000000001824424242424242422418B1
:1027E0000000000000080E08080808080808083E55
:1027F00000000000003C4242422020100804427EBB
:1028000000000000003C4242201820404042221CB0
:102810000000000000203028242422227E2020787E
:1028200000000000007E0202021A26404042221CE4
:102830000000000000382402021A264242422418F6
:1028400000000000007E2222101008080808080876
:1028500000000000003C4242422418244242423C14
:102860000000000000182442424264584040241CEA
:1028700000000000000000001818000000001818F8
:102880000000000000000000000800000000000838
:102890000804000000402010080402040810204032
:1028A00000000000000000007F0000007F0000002A
:1028B000000000000002040810204020100804025C
:1028C00000000000003C4242464020101000181852
:1028D00000000000001C225A555555552D42221C5F
:1028E00000000000000808181414243C224242E7AB
:1028F00000000000001F2222221E22424242221F0C
:1029000000000000007C4242010101010142221C42
:1029100000000000001F2242424242424242221F67
:1029200000000000003F4212121E12120242423FFB
:1029300000000000003F4212121E121202020207A3
:1029400000000000003C2222010101712122221C12
:102950000000000000E7424242427E42424242E71B
:1029600000000000003E0808080808080808083EA3
:1029700000000000007C101010101010101010103B
:10298000110F0000007722120A0E0A12122222777B
:102990000000000000070202020202020202427F5F
:1029A000000000000077363636362A2A2A2A2A6B9B
:1029B0000000000000E346464A4A52525262624713
:1029C00000000000001C2241414141414141221CC4
:1029D00000000000003F424242423E020202020763
:1029E00000000000001C2241414141414D53321C76
:1029F00060000000003F4242423E1212222242C7C3
:102A000000000000007C4242020418204042423E86
:102A100000000000007F4908080808080808081C92
:102A20000000000000E74242424242424242423C31
:102A30000000000000E74242222424141418080871
:102A400000000000006B49494949555536222222B1
:102A50000000000000E7422424181818242442E74C
:102A60000000000000772222141408080808081C3F
:102A700000000000007E2120101008040442423FA4
:102A8000000000780808080808080808080808086E
:102A9000780000000202040408080810102020201A
:102AA0004040001E101010101010101010101010C8
:102AB0001E0000384400000000000000000000007C
:102AC0000000000000000000000000000000000006
:102AD00000FF0006080000000000000000000000E9
:102AE0000000000000000000003C4278444242FC2C
:102AF0000000000000030202021A26424242261A87
:102B000000000000000000000038440202024438C7
:102B1000000000000060404040784442424264D8D7
:102B20000000000000000000003C427E0202423C27
:102B30000000000000F08808087E08080808083E29
:102B40000000000000000000007C22221C023C4229
:102B5000423C000000030202023A4642424242E77F
:102B600000000000000C0C00000E08080808083ED9
:102B700000000000003030000038202020202020FD
:102B8000221E0000000302020272120A16122277AD
:102B900000000000000E0808080808080808083EA1
:102BA0000000000000000000007F9292929292B715
:102BB0000000000000000000003B4642424242E7A5
:102BC0000000000000000000003C42424242423C43
:102BD0000000000000000000001B26424242221EAE
:102BE000020700000000000000784442424244789E
:102BF00040E000000000000000774C040404041FC3
:102C00000000000000000000007C42023C40423E08
:102C10000000000000000008083E0808080808300E
:102C2000000000000000000000634242424262DCFB
:102C3000000000000000000000E7422424140808FF
:102C4000000000000000000000EB49495555222219
:102C50000000000000000000007624181818246E00
:102C6000000000000000000000E7422424141808BF
:102C70000807000000000000007E22100808447EC3
:102C8000000000C020202020201020202020202014
:102C9000C000101010101010101010101010101094
:102CA0001010000608080808081008080808080896
:102CB00006000C32C200000000000000000000000E
:102CC0000000000000000000000000000000000004
:102CD00000000000000000000000000000000000F4
:102CE00000000000000000000000000000000000E4
:102CF00000000000000000000000600060006000B4
:102D000060006000600060004000200020002000A3
:102D10000000000000006000600060000000000093
:102D20000000000000006006600630039801880083
:102D3000440000000000000000000000000000004F
:102D40000000000000000000000000000000000083
:102D5000000000000000000000001002100210023D
:102D60001002FE07FE070802080108010801080119
:102D7000FE07FE0704010401040104010000000035
:102D8000000000000000000040004000F001580377
:102D90004C03CC034C0058007000E000C001C0019F
:102DA00040034C035C034C034801F000400040002A
:102DB000000000000000000000000E010A01910068
:102DC00091009100510051003A00AE03A00250045E
:102DD00050044804480448048402840300000000AE
:102DE0000000000000000000000038006C006C00D3
:102DF0006C006C006C002C0098071C011A01330158
:102E000033016301E300C308C6093C07000000006A
:102E10000000000000000C001C0010001000080062
:102E2000040000000000000000000000000000009E
:102E30000000000000000000000000000000000092
:102E4000000000000000000400020001800080007B
:102E50004000400020002000200020002000200032
:102E600020004000400080008000000100020004BB
:102E70000000000000000200040008001000100024
:102E80002000200040004000400040004000400082
:102E90004000200020001000100008000400020084
:102EA00000000000000000000000000000004000E2
:102EB000C0004000460C4E0FD001F0015E0F460CE2
:102EC0004000400040000000000000000000000042
:102ED00000000000000000000000000000000000F2
:102EE00040004000400040004000FE0F4000400015
:102EF0004000400040000000000000000000000012
:102F000000000000000000000000000000000000C1
:102F100000000000000000000000000000000000B1
:102F20000000000000000C001C0010001000080051
:102F3000040000000000000000000000000000008D
:102F400000000000000000000000FE07000000007C
:102F50000000000000000000000000000000000071
:102F60000000000000000000000000000000000061
:102F70000000000000000000000000000000000051
:102F80000000000000001C001C001C0000000000ED
:102F90000000000000000004000600020003000121
:102FA0000001800080004000400060002000200000
:102FB00010001000080008000C00040006000200C9
:102FC000000000000000000000000000F000980178
:102FD0000C030C030606060606060606060606068B
:102FE000060606060C030C039801F0000000000022
:102FF00000000000000000000000000040007C0015
:1030000060006000600060006000600060006000C0
:1030100060006000600060006000FC0300000000D1
:10302000000000000000000000000000F800840123
:10303000020306030603000300018001C0006000D4
:1030400020001000080204020602FE030000000037
:103050000000000000000000000000007800C60032
:103060008601860180018001C0007000800100019E
:1030700000030003060306038601F80000000000B9
:10308000000000000000000000000000800180013E
:10309000C001A001A0019001880188018401820182
:1030A000FE0F8001800180018001E0070000000028
:1030B000000000000000000000000000FC0304000D
:1030C0000400040004000400F4008C010403000365
:1030D00000030603060382018401F80000000000DB
:1030E000000000000000000000000000E0011803E4
:1030F0000C030C0004000600E60116030E0606068B
:103100000606060604060C021803F0000000000084
:10311000000000000000000000000000F8070C069E
:103120000402040100010001800080004000400012
:10313000400060006000600060006000000000006F
:10314000000000000000000000000000F8010C0377
:103150000606060606060C021C03F000C8010C0356
:1031600006060606060606060C03F001000000002F
:10317000000000000000000000000000F0000C0152
:103180000C03060206060606060606078C067806E7
:103190000006000300030C018C0178000000000011
:1031A000000000000000000000000000000000001F
:1031B000000000000000E000E000E000000000006F
:1031C000000000000000E000E000E000000000005F
:1031D00000000000000000000000000000000000EF
:1031E000000000000000600060000000000000001F
:1031F00000000000000000006000600040002000AF
:103200002000000000000000000000040002000197
:10321000800040002000100008000400080010009A
:1032200020004000800000010002000400000000B7
:10323000000000000000000000000000000000008E
:10324000000000000000FE07000000000000FE0774
:10325000000000000000000000000000000000006E
:103260000000000000000000000004000800100042
:103270002000400080000001000200040002000164
:103280008000400020001000080004000000000042
:10329000000000000000000000000000E00318062D
:1032A000040C040C0C0C0C0C0007800140004000C6
:1032B000400000000000E000E000E000000000002E
:1032C00000000000000000000000E00018030C02F5
:1032D000CC0564056605A605B604B604B604B604B6
:1032E000B602E4010C040C021803F0000000000018
:1032F000000000000000000000000000600060000E
:103300005000D00090009000880088010801F8016A
:10331000040304030402020202060F0F000000006F
:10332000000000000000000000000000FE008C0310
:103330000C030C030C030C038C01FC000C030C02AB
:103340000C060C060C060C060C03FE010000000027
:10335000000000000000000000000000E00318036F
:103360000C060C0404040600060006000600060015
:10337000060006040C040C021803F0000000000014
:103380000000000000000000000000007F008C0131
:103390000C030C030C060C060C060C060C060C06A3
:1033A0000C060C060C030C038C017F0000000000CF
:1033B000000000000000000000000000FF03060302
:1033C00006040604060086008600FE0086008600CD
:1033D00086000600060406040602FF030000000043
:1033E000000000000000000000000000FF030603D2
:1033F00006040604060086008600FE00860086009D
:10340000860006000600060006001F0000000000FF
:10341000000000000000000000000000F0001801A3
:103420000C020C0204020600060006000600C60F8D
:10343000060306030C030C031803F0000000000051
:103440000000000000000000000000000F0F060652
:1034500006060606060606060606FE070606060613
:10346000060606060606060606060F0F0000000002
:10347000000000000000000000000000FC036000ED
:10348000600060006000600060006000600060003C
:1034900060006000600060006000FC03000000004D
:1034A000000000000000000000000000F807C0005D
:1034B000C000C000C000C000C000C000C000C0000C
:1034C000C000C000C000C000C000C000C600660050
:1034D0003C0000000000000000000000CF03860157
:1034E000C60046002600160036002E006E0046007C
:1034F000C60086008601060106038F070000000053
:103500000000000000000000000000001F00060096
:10351000060006000600060006000600060006007B
:1035200006000600060406040602FF030000000071
:1035300000000000000000000000000007078603F4
:1035400086038E038E034E034E034A035A035A0327
:103550003A033203320332031203870700000000EC
:103560000000000000000000000000008E0F0C02B0
:103570001C021C0234023402640264024402C402CB
:10358000840284038403040304031F020000000078
:10359000000000000000000000000000F0009801A2
:1035A0000C030C02060606060606060606060606B6
:1035B000060606060C020C039801F000000000004D
:1035C000000000000000000000000000FF000603F3
:1035D000060606060606060606068603FE00060022
:1035E000060006000600060006001F00000000009E
:1035F000000000000000000000000000F000980142
:103600000C030C0206060606060606060606060655
:10361000060676064C02CC039801F00080070003F2
:10362000000000000000000000000000FF01060391
:1036300006060606060606060603FE004600C60047
:10364000860086010603060306060F0E0000000032
:10365000000000000000000000000000F8020C0361
:103660000602060206000E003C00F800E00380039C
:1036700000070206020606060C03F0010000000027
:10368000000000000000000000000000FE076204CF
:103690006108610860006000600060006000600018
:1036A00060006000600060006000F8010000000041
:1036B0000000000000000000000000001E070C02D7
:1036C0000C020C020C020C020C020C020C020C028A
:1036D0000C020C020C020C021801F00000000000A9
:1036E0000000000000000000000000000F070602BC
:1036F000040104010C010C01880088009800980066
:103700005000500070003000200020000000000039
:10371000000000000000000000000000F70E62043E
:1037200042044604460464026402E402E4029C0289
:103730009C01980198018801880088000000000021
:103740000000000000000000000000009E070C01C7
:10375000080118019000B0006000200060006000C7
:10376000D00090008801080104038E0700000000CB
:103770000000000000000000000000000F0F060421
:1037800004020C0208011801B800B00070006000CB
:1037900060006000600060006000F8010000000050
:1037A000000000000000000000000000FC070C0208
:1037B000060302018001800040004000200020003C
:1037C0001000180008040C040402FE0300000000AE
:1037D000000000000000E003200020002000200086
:1037E00020002000200020002000200020002000D9
:1037F0002000200020002000200020002000E00306
:1038000000000000000000000000040004000800A8
:1038100008001000100010002000200040004000B0
:10382000C0008000800000010001000200020002D0
:103830000004000000007C00400040004000400008
:103840004000400040004000400040004000400078
:1038500040004000400040004000400040007C002C
:10386000000000006000900008010000000000005F
:103870000000000000000000000000000000000048
:103880000000000000000000000000000000000038
:103890000000000000000000000000000000000028
:1038A0000000000000000000000000000000000018
:1038B0000000000000000000000000000000000008
:1038C000FF0F000000001800600000000000000072
:1038D00000000000000000000000000000000000E8
:1038E00000000000000000000000000000000000D8
:1038F00000000000000000000000000000000000C8
:10390000000000000000F0010C030C030003E003C2
:103910001C030E03060306038E0B7C0E0000000042
:103920000000000000000000000008000E000C0075
:103930000C000C000C00CC013C031C060C060C0611
:103940000C060C060C060C021C03E401000000002F
:103950000000000000000000000000000000000067
:10396000000000000000F0008C018C0186010600C0
:103970000600060006020C020C01F0000000000028
:10398000000000000000000000000002C00300036F
:1039900000030003000378038C030C0306030603F3
:1039A00006030603060304038C07780100000000E9
:1039B0000000000000000000000000000000000007
:1039C000000000000000E001180308020C060C06CD
:1039D000FC070C000C0018041802E00100000000B5
:1039E000000000000000000000000000C0036006AE
:1039F000300630003000FE01300030003000300072
:103A000030003000300030003000FC0100000000C9
:103A100000000000000000000000000000000000A6
:103A2000000000000000F007D8068C018C018C011A
:103A30009801F8000C00FC00CC03060306038E037B
:103A4000F800000000000000000008000E000C005C
:103A50000C000C000C00EC011C030C030C030C0309
:103A60000C030C030C030C030C039E070000000066
:103A70000000000000000000000000006000600086
:103A80000000000040007C006000600060006000FA
:103A900060006000600060006000FC030000000047
:103AA000000000000000000000000000C001C00194
:103AB000000000000001F001800180018001800110
:103AC0008001800180018001800180018001CC00A3
:103AD0007C00000000000000000008000E000C0048
:103AE0000C000C000C008C038C008C004C006C0053
:103AF0005C008C008C010C010C039E070000000090
:103B00000000000000000000000040007C00600099
:103B100060006000600060006000600060006000A5
:103B200060006000600060006000FC0300000000B6
:103B30000000000000000000000000000000000085
:103B40000000000000003707EE06660666066606FF
:103B500066066606660666066606FF0F000000003B
:103B60000000000000000000000000000000000055
:103B7000000000000000EE011C030C030C030C030A
:103B80000C030C030C030C030C039E070000000045
:103B90000000000000000000000000000000000025
:103BA000000000000000F00098010C030606060665
:103BB0000606060606060C030C03F00000000000D3
:103BC00000000000000000000000000000000000F5
:103BD000000000000000EE011C030C060C060C06A1
:103BE0000C060C060C060C031C03EC010C000C006C
:103BF0003E00000000000000000000000000000087
:103C000000000000000078028C030C03060306038A
:103C100006030603060304038C0378030003000372
:103C2000C0070000000000000000000000000000CD
:103C30000000000000009F03580638061800180016
:103C400018001800180018001800FF0000000000FD
:103C50000000000000000000000000000000000064
:103C6000000000000000F0031C030C020C023800EE
:103C7000F000C003040304038C03FC0100000000F7
:103C80000000000000000000000000000000200014
:103C9000200030003000FE013000300030003000E5
:103CA00030003000300030023002E001000000003F
:103CB0000000000000000000000000000000000004
:103CC0000000000008028E030C030C030C030C031D
:103CD0000C030C030C030C039C077801000000008C
:103CE00000000000000000000000000000000000D4
:103CF0000000000000001E070C0208010801180166
:103D00009000B000B00060006000200000000000E3
:103D100000000000000000000000000000000000A3
:103D2000000000000000F70E620446046402640212
:103D3000EC029C0198019801980108000000000025
:103D40000000000000000000000000000000000073
:103D5000000000000000BC0718011001B000600066
:103D60006000E0009000080108039E0700000000CA
:103D70000000000000000000000000000000000043
:103D80000000000000009E070801080108019000E3
:103D90009000B0006000600060002000200024005F
:103DA0001C000000000000000000000000000000F7
:103DB000000000000000FC018401C4004400600019
:103DC00020003000180208020C03FC010000000073
:103DD00000000000000000038000800080008000E0
:103DE00080008000800080004000200040008000B3
:103DF0008000800080008000800080008000000340
:103E000000004000400040004000400040004000F2
:103E100040004000400040004000400040004000A2
:103E20004000400040004000400040004000400092
:103E30004000000000000C001000100010001000F6
:103E400010001000100010002000400020001000A2
:103E500010001000100010001000100010000C00E6
:103E6000000000001C002204C204800300000000C7
:103E70000000000000000000000000000000000042
:103E80000000000000000000000000000000000032
:103E90000000000000000000000000000000000022
:103EA0000000000000000000000000000000000012
:103EB0000000000000000000000000000000000002
:103EC00000000000000000000000000000000000F2
:103ED000000000000000000000000000C001C00160
:103EE000C001C001C001C001C0018000800080008D
:103EF00080008000800080000000000000000000C2
:103F00008001C003C0038001000000000000000029
:103F10000000000000000000E01CE01CF01E700E1D
:103F200038071803080184000000000000000000AA
:103F30000000000000000000000000000000000081
:103F40000000000000000000000000000000000071
:103F50000000000000000000000000000000201031
:103F60002010201020102010FE7FFE7F1008100867
:103F700010081008100810081008FE7FFE7F0804C3
:103F80000804080408040804000000000000000001
:103F90000000000000000000000000010001C00758
:103FA0006019103118311839183938017001E001E1
:103FB000C0038007000F001D003900311C311C3187
:103FC0000C310C11180DE007000100010001000088
:103FD00000000000000000000000000000001C10B5
:103FE00036186308630C63046304630263026301AD
:103FF000361D9C37802280634063406320632063CA
:10400000306310221836081C000000000000000079
:104010000000000000000000000000000000F000B0
:1040200098018C018C018C018C018C00CC007800F3
:10403000183E1C083608320863046304C304C30333
:10404000834306438E26781C000000000000000019
:1040500000000000000000001C003C003C0030009C
:10406000300010000C0006000000000000000000FE
:104070000000000000000000000000000000000040
:104080000000000000000000000000000000000030
:1040900000000000000000000040002000100008A8
:1040A000000C0004000600030003000380018001EF
:1040B00080018001800180018001800100030003F4
:1040C000000300060006000C00080010002000405D
:1040D00000000000000000000200040008001000C2
:1040E000300020006000C000C000C00080018001DE
:1040F000800180018001800180018001C000C0003A
:10410000C0006000600030001000080004000200E1
:10411000000000000000000000000000000000009F
:10412000000000018003800300011C713C79783D90
:10413000C0070001C007783D3C791C710001800375
:10414000800380010000000000000000000000006B
:10415000000000000000000000000000000000005F
:104160000000000000010001000100010001000149
:104170000001FC7F000100010001000100010001BD
:10418000000100000000000000000000000000002E
:10419000000000000000000000000000000000001F
:1041A000000000000000000000000000000000000F
:1041B00000000000000000000000000000000000FF
:1041C00000001C003C003C003000300010000C00DF
:1041D00006000000000000000000000000000000D9
:1041E00000000000000000000000000000000000CF
:1041F0000000FE7F00000000000000000000000042
:1042000000000000000000000000000000000000AE
:10421000000000000000000000000000000000009E
:10422000000000000000000000000000000000008E
:10423000000000000000000000000000000000007E
:1042400018003C003C0018000000000000000000C6
:10425000000000000000000000400060002000306E
:10426000001000180008000C000400060002000303
:10427000000180018000C00040006000200030008C
:104280001000180008000C000400060002000000E6
:104290000000000000000000000000000000C00757
:1042A000600C30181830183018200C600C600C604E
:1042B0000C600C600C600C600C600C6018201830F6
:1042C00018303018600CC00700000000000000002B
:1042D00000000000000000000000000000000001DD
:1042E0008001F8018001800180018001800180014E
:1042F00080018001800180018001800180018001B6
:1043000080018001C003F81F0000000000000000D1
:104310000000000000000000000000000000E007B6
:10432000101C0818043004300C300C300030001819
:10433000000800040002000180004000202010203E
:1043400008200430FC1FFC1F0000000000000000DB
:104350000000000000000000000000000000E0037A
:10436000180E0C0C0C180C180C180018000C000679
:10437000C003000E00180010003000300C300C306C
:104380000C100C18180CE0030000000000000000E6
:104390000000000000000000000000000000000C11
:1043A000000E000E000F800E800E400E600E200EDC
:1043B000100E100E080E040E040EFE7F000E000EEE
:1043C000000E000E000E000EC07F00000000000076
:1043D0000000000000000000000000000000F03FAE
:1043E000F03F10001000100008000800C807280C5B
:1043F0001818081000300030003000300C300C303D
:1044000004180418080CF00300000000000000006D
:104410000000000000000000000000000000800F0D
:10442000C010203010301800180008000C008C0F4D
:104430006C183C301C600C600C600C600C601860E8
:10444000182030306018C007000000000000000095
:104450000000000000000000000000000000F83F25
:10446000F83F1C100C0804080404000400020002B9
:10447000000100010001800080008000C000C00039
:10448000C000C000C000C00000000000000000002C
:104490000000000000000000000000000000E00735
:1044A000300C18180C300C300C301C3038187008D8
:1044B000E007B007180E0C1C063806300630063030
:1044C00006300C18180CE00300000000000000008B
:1044D0000000000000000000000000000000E003F9
:1044E00018040C080C18061006300630063006308A
:1044F00006380C3C1836F03100300018001800184F
:104500000C0C0C060C03F001000000000000000081
:10451000000000000000000000000000000000009B
:104520000000000000000000000000008001C00347
:10453000C003800100000000000000000000000037
:104540008001C003C00380010000000000000000E3
:10455000000000000000000000000000000000005B
:10456000000000000000000000000000C000C000CB
:10457000000000000000000000000000000000003B
:1045800000000000C000C00080008000400040002B
:1045900000000000000000000000000000200010EB
:1045A00000080004000600038001C0006000300025
:1045B00018000C00180030006000C00080010003EB
:1045C00000060004000800100020000000000000A9
:1045D00000000000000000000000000000000000DB
:1045E000000000000000000000000000FE7F00004E
:1045F0000000000000000000FE7F0000000000003E
:1046000000000000000000000000000000000000AA
:10461000000000000000000000000000040008008E
:10462000100020006000C000800100030006000CA4
:10463000001800300018000C000600038001C000C4
:1046400060002000100008000400000000000000CE
:10465000000000000000000000000000C00730184B
:10466000083008600C601C601C601C600030001C7E
:104670000006000180008000800080000000000033
:104680008001C003C00380010000000000000000A2
:104690000000000000000000000000000000C00753
:1046A0006018103018200C2F8C4D864CC64CC64C10
:1046B000664C66446644662666266615CC1C0C402D
:1046C000082018303018C00700000000000000006B
:1046D0000000000000000000000000000001C00118
:1046E000C001C00140016003200320032003300605
:1046F000100610061006F80F080C080C080C0C0C1D
:104700000418041806181F7C0000000000000000B8
:104710000000000000000000000000000000FE0794
:10472000181C183818301830183018301818180C91
:10473000F8071818183018201860186018601860EA
:10474000186018301818FE0F00000000000000006C
:104750000000000000000000000000000000C02772
:104760006038103018200C400C4004000600060091
:104770000600060006000600060006000C400C407D
:104780000C2018303018C0070000000000000000A6
:104790000000000000000000000000000000FE0318
:1047A000180E181818301830183018601860186073
:1047B0001860186018601860186018601830183099
:1047C00018101818180EFE0300000000000000006A
:1047D0000000000000000000000000000000FE3F9C
:1047E0001830182018601840180018081808180CFD
:1047F000F80F180C180818081800180018001840AE
:10480000184018201830FE3F000000000000000093
:104810000000000000000000000000000000FE7F1B
:104820001870184018C018801800181018101818A0
:10483000F81F181818101810180018001800180081
:104840001800180018007E000000000000000000A2
:104850000000000000000000000000000000C01385
:10486000701C101018100C200C200400060006000C
:1048700006000600060006FC063006300C300C3040
:10488000183018303008C007000000000000000099
:1048900000000000000000000000000000003F7E5B
:1048A0000C180C180C180C180C180C180C180C18E8
:1048B0000C18FC1F0C180C180C180C180C180C18E1
:1048C0000C180C180C183F7E0000000000000000BF
:1048D0000000000000000000000000000000F81FC1
:1048E00080018001800180018001800180018001C0
:1048F00080018001800180018001800180018001B0
:10490000800180018001F81F00000000000000000D
:104910000000000000000000000000000000E07F38
:104920000006000600060006000600060006000657
:104930000006000600060006000600060006000647
:10494000000600060006000600060E060E038E0195
:10495000FC000000000000000000000000007E7C61
:104960001818180818041806180218019801980158
:10497000D801B803380318071806180E180C181CAD
:104980001818183018307EFC0000000000000000ED
:1049900000000000000000000000000000007E0099
:1049A0001800180018001800180018001800180047
:1049B00018001800180018001800180018001840F7
:1049C000184018201830FE3F0000000000000000D2
:1049D00000000000000000000000000000001FF8C0
:1049E0001C381C381C381C3C3434343434343436D1
:1049F00074326432643264326431C431C431C431DB
:104A0000C430C43084309FFC00000000000000006F
:104A100000000000000000000000000000001F7CFB
:104A20001C103C103410341074106410E410C410C6
:104A3000C41184118413041304170416041E041CE7
:104A4000041C041C04181F180000000000000000D3
:104A50000000000000000000000000000000C00393
:104A6000300C181808100C300C3006600660066018
:104A70000660066006600660066006600C200C306A
:104A800008101818300CC0030000000000000000DF
:104A90000000000000000000000000000000FE0F09
:104AA00018181830186018601860186018601830EE
:104AB0001818F80F1800180018001800180018002F
:104AC0001800180018007E00000000000000000020
:104AD0000000000000000000000000000000C00313
:104AE000300C18180C100C300C20066006600660A4
:104AF000066006600660066006600660E4612C33AE
:104B00001C321816300EC007004C007C0038000024
:104B10000000000000000000000000000000FE0790
:104B2000181C183818301830183018301818180C8D
:104B3000F80798031803180718061806180E180C1B
:104B4000180C181C18187E780000000000000000E7
:104B50000000000000000000000000000000E0274E
:104B6000303818300C200C200C000C001800780095
:104B7000E003800F001E00380070006004600460D5
:104B8000086018303818C80F00000000000000004E
:104B90000000000000000000000000000000FC3FDA
:104BA0008C218461824182418001800180018001E9
:104BB00080018001800180018001800180018001ED
:104BC000800180018001E00700000000000000007B
:104BD00000000000000000000000000000003F7C1A
:104BE0000C100C100C100C100C100C100C100C10E5
:104BF0000C100C100C100C100C100C100C100C10D5
:104C00000C1008083804E003000000000000000059
:104C100000000000000000000000000000003EF85E
:104C20001820182018203010301030103010600874
:104C300060086008E00CC004C004C0048003800366
:104C4000800380030001000100000000000000005C
:104C50000000000000000000000000000000DFF382
:104C60008661862186218C210C218C238C138C1348
:104C70008C134C1358125816580E380E380E380E26
:104C8000300C1004100410040000000000000000AC
:104C900000000000000000000000000000007E3E58
:104CA000180838083004300470026002E001C001C6
:104CB000C001800180034003400720062006100C3D
:104CC000100C081808183E7C0000000000000000CE
:104CD00000000000000000000000000000007E7CDA
:104CE0001C10181018083008300C700460046002A2
:104CF000C002C002C00180018001800180018001EA
:104D0000800180018001E007000000000000000039
:104D10000000000000000000000000000000F83F5C
:104D200018180818040C040E00060007000380037E
:104D30008001C001C000E000600070003000382039
:104D400018201C100C18FE1F0000000000000000BE
:104D50000000000000000000C03F40004000400094
:104D60004000400040004000400040004000400043
:104D70004000400040004000400040004000400033
:104D8000400040004000400040004000C03F0000A4
:104D900000000000000000000000000008001800F3
:104DA0001800100030002000600060004000C000CB
:104DB000800080018001000100030002000600065F
:104DC0000004000C0008001800180010003000203B
:104DD0000000000000000000FC03000200020002CE
:104DE00000020002000200020002000200020002B3
:104DF00000020002000200020002000200020002A3
:104E0000000200020002000200020002FC03000097
:104E100000000000000000008007C00620081010FD
:104E20000000000000000000000000000000000082
:104E30000000000000000000000000000000000072
:104E40000000000000000000000000000000000062
:104E50000000000000000000000000000000000052
:104E60000000000000000000000000000000000042
:104E70000000000000000000000000000000000032
:104E80000000000000000000000000000000000022
:104E9000FFFF0000000000007800C00000010000DB
:104EA0000000000000000000000000000000000002
:104EB00000000000000000000000000000000000F2
:104EC00000000000000000000000000000000000E2
:104ED00000000000000000000000000000000000D2
:104EE000000000000000000000000000F0031806B1
:104EF0000C0C0C0C000C800F700C1C0C0C0C060C19
:104F0000060C064C0C4FF8380000000000000000B2
:104F100000000000000000000000000010001E0063
:104F2000180018001800180018001800180FD818DA
:104F300038303860186018601860186018601860A1
:104F4000182038307818C807000000000000000062
:104F50000000000000000000000000000000000051
:104F6000000000000000000000000000C007700CFE
:104F7000181818180C180C000C000C000C000C2051
:104F8000182018103008C0070000000000000000C2
:104F90000000000000000000000000000010001EE3
:104FA000001800180018001800180018E01B301C2A
:104FB000181818180C180C180C180C180C180C18B9
:104FC0000818181C307AE0090000000000000000FA
:104FD00000000000000000000000000000000000D1
:104FE000000000000000000000000000C007300CBE
:104FF000181808100C300C30FC3F0C000C000C0092
:10500000182018107018C0070000000000000000F1
:105010000000000000000000000000000000003E52
:1050200080C380C0C0C0C000C000C000FC1FC00062
:10503000C000C000C000C000C000C000C000C00070
:10504000C000C000C000F80F000000000000000019
:105050000000000000000000000000000000000050
:10506000000000000000000000000000C077306C6D
:1050700010181818181818181018300CF007180005
:105080001800F00FF03F08700C600C600C603838AE
:10509000E00F0000000000000000000010001E00F3
:1050A000180018001800180018001800980FD818D9
:1050B0003830183018301830183018301830183090
:1050C0001830183018307EFC00000000000000008E
:1050D000000000000000000000000000000080034D
:1050E000800380030000000000000001F80180013F
:1050F00080018001800180018001800180018001A8
:10510000800180018001F81F000000000000000005
:105110000000000000000000000000000000003857
:10512000003800380000000000000010801F001848
:1051300000180018001800180018001800180018AF
:10514000001800180018001800180018180C18068D
:10515000F0030000000000000000000010001E002E
:10516000180018001800180018001800183E180C35
:105170001806180318019801D801380318071806F3
:10518000180C181C18187E7C00000000000000009D
:105190000000000000000000000000000001F80115
:1051A00080018001800180018001800180018001F7
:1051B00080018001800180018001800180018001E7
:1051C000800180018001F81F000000000000000045
:1051D00000000000000000000000000000000000CF
:1051E000000000000000000000000800EE1C9C33DE
:1051F0008C318C318C318C318C318C318C318C31C7
:105200008C318C318C31DE7B00000000000000000E
:10521000000000000000000000000000000000008E
:105220000000000000000000000010001E0FD81851
:10523000383018301830183018301830183018300E
:105240001830183018307EFC00000000000000000C
:10525000000000000000000000000000000000004E
:10526000000000000000000000000000C007701CEB
:10527000103018300C600C600C600C600C600C601E
:10528000183018303018C00700000000000000007F
:10529000000000000000000000000000000000000E
:1052A0000000000000000000000010009E0F5818D1
:1052B000383018201860186018601860186018607E
:1052C000183038307818980718001800180018009F
:1052D0007E00000000000000000000000000000050
:1052E000000000000000000000000000C023303C6F
:1052F000183818300C300C300C300C300C300C30AE
:1053000008301838303CE0330030003000300030D6
:1053100000FC000000000000000000000000000091
:105320000000000000000000000060007E3C60669D
:105330006061E000E000600060006000600060000C
:10534000600060006000FE07000000000000000038
:10535000000000000000000000000000000000004D
:10536000000000000000000000000000E0273038CE
:105370001830182018007000E003800F001C043063
:1053800004300C301C18EC0F00000000000000007E
:10539000000000000000000000000000000000000D
:1053A0000000800080008000C000E000FC1FC00002
:1053B000C000C000C000C000C000C000C000C000ED
:1053C000C020C0208011000F00000000000000007D
:1053D00000000000000000000000000000000000CD
:1053E0000000000000000000000010201E3C1830EB
:1053F000183018301830183018301830183018306D
:105400001830183830F4E0130000000000000000ED
:10541000000000000000000000000000000000008C
:105420000000000000000000000000007E3C181892
:105430001808380830043004700260026002E0018D
:10544000C001C001C000800000000000000000009A
:10545000000000000000000000000000000000004C
:10546000000000000000000000000000DFF78E6375
:105470000C238C238C239813981358165816700EEF
:10548000700E700E200420040000000000000000D8
:10549000000000000000000000000000000000000C
:1054A000000000000000000000000000FC3E70084A
:1054B0007004E004C002C00180038003400760065E
:1054C000200C100C18183E7E0000000000000000A8
:1054D00000000000000000000000000000000000CC
:1054E0000000000000000000000000007E7C181892
:1054F000180830083008300460046004C002C0029C
:10550000C0028001800180018000800080004C008A
:105510003C0000000000000000000000000000004F
:10552000000000000000000000000000FC1F0C0C48
:10553000040E0406000380038001C000E000702018
:10554000302038301C18FC1F000000000000000054
:10555000000000000000000000300008000400040B
:10556000000400040004000400040004000400041B
:105570000002800100020004000400040004000492
:1055800000040004000400040004000400080030CB
:105590000000000100010001000100010001000104
:1055A00000010001000100010001000100010001F3
:1055B00000010001000100010001000100010001E3
:1055C00000010001000100010001000100010001D3
:1055D00000010000000000000C001000200020006E
:1055E00020002000200020002000200020002000BB
:1055F000400080014000200020002000200020000A
:1056000020002000200020002000200010000C00BE
:10561000000000003800C400864002610022001C27
:10562000000000000000000000000000000000007A
:10563000000000000000000000000000000000006A
:10564000000000000000000000000000000000005A
:105650000000BFAA0000FE038800880088008800C0
:10566000FF0788008800840084008200CABC840090
:10567000840044002F02EA070A04EA0329022A02EE
:105680002402EA032902D3CE88009100BE07480015
:10569000880339022A01E80728012A012901B401F7
:1056A000CFB7800280049F009007F1008A028A022F
:1056B000840204018A054A062104CABC08040804BD
:1056C000080408023F122421A47F24412400123F31
:1056D0001421082114212221013F0021BFAA00002A
:1056E000FE3F10041004100410041004FF7F100487
:1056F0001004100410040804080404040204D3CEA7
:10570000400884088808E87D41044202C23D4821DF
:1057100048114411477D441124112411941508089F
:10572000CFB70004001400247E244004407CA4076A
:1057300028241024101428144808444C02520061F4
:105740008040D5F0FC1F8000FE7F8240B92E800093
:10575000B80E0000FC3F0400F41F0400FC3F2412BC
:10576000220C6170B6AF000200023E020002803FD0
:1057700000227F2204220422042112212221BF20A0
:10578000A22040142008C2ED0000FE07000400041F
:10579000080408040804F83F002000200020FF2728
:1057A0000020002000140008B4EF000204020802E8
:1057B0000802E07F00020F0208050809881048204F
:1057C000282008001400E27F0000B1B32001201956
:1057D0003E0720213821273E0200F80F0808F80F65
:1057E0000808F80F08080808080A0804BEB0F80FEF
:1057F0000808F80F0808F80F8000FF7F0000F80F76
:1058000008080808F80F80008410A2204000D2F495
:1058100040008000FC1F000010042002FF7F0000F9
:10582000F80F08080808F80F08080808F80F080813
:10583000C0D60004000FF80008008800840084002F
:10584000FC3F800090049008881084208220A000F3
:105850004000A3BA000000000000000000000000AB
:105860000000000000000C000C0000000C000C0008
:1058700000000000BFAA000000000000000008FCBB
:10588000FF1F008100008100008100008100008175
:1058900000008100008110FEFF3F008100008100B8
:1058A0000081008081008080008080004080006056
:1058B0008000308000088000048000000000CABC26
:1058C00000000020800060800160C00020400020B7
:1058D0004000FE2304102218101330101B3E18F94C
:1058E0002108012008010088F11F843010B8301011
:1058F000E03010C0311060331030321010F01F0C47
:105900003010021000000000D3CE000000000001A3
:1059100018020130860120840000803FC07F0046CD
:1059200042004CE23F280218283E082013061013BC
:105930000610110610F13F1E110608110688100608
:105940008818064808064C0B06200C0710000200B9
:105950000000CFB70000000030000020000020034E
:1059600000200EFE230C00230800213000E11F88D8
:105970007F00906008B04018E0400CC04006E0C1D5
:1059800002A0810330830110C22108622304102683
:10599000040C2C020238000060000000BFAA0000C6
:1059A00000000000000000000000000000040000F3
:1059B000000EF8FFFF1F000C3000000C3000000C40
:1059C0003000000C3000000C3000000C3000000CE7
:1059D0003000000C3000000C3018FCFFFF3F000CC2
:1059E0003000000C3000000C3000000C3000000CC7
:1059F00030000004300000063000000630000003D4
:105A000030000001300080003000400030002000F5
:105A10003000180030000400100000000000CABC74
:105A200000000000000000008000100080037000F3
:105A3000800138008001180080010800C0000C00BF
:105A4000C0000403C0100606FC3F021C40100138D1
:105A50006098813F60987F302098011020180000E6
:105A600030080000300C0108100CFF1F1804030C54
:105A70001806030C3006030CC002030C0007030CCD
:105A8000001D030C8039030CC030030C6000FF0FB5
:105A90003000030C0800030C0400010000000000AB
:105AA000D3CE00000000000000000000000010083D
:105AB000E00060306000E0702000C0603000C02076
:105AC00010180000F13F00FE0B00041108080C1133
:105AD000FC1F9810020C9818010690F80302801819
